:020000040800F2
:1000000068080020D5000008851F0008871F000829
:1000100000000000000000000000000000000000E0
:100020000000000000000000000000008B1F00081E
:1000300000000000000000008D1F0008A31F000842
:10004000E7000008E7000008E7000008E7000008F4
:10005000E70000088F1F0008E7000008E70000081D
:10006000E7000008E7000008E7000008E7000008D4
:10007000E7000008E7000008E7000008A51F0008E7
:1000800053200008E700000800000000E700000817
:10009000E7000008E7000008E7000008E7000008A4
:1000A000E7000008E7000008E70000084920000812
:1000B000E700000800000000E70000080000000062
:1000C0000348854602F068FF00480047211F0008EA
:1000D000680800200448804704480047FEE7FEE720
:1000E000FEE7FEE7FEE7FEE7BF010008C1000008EB
:1000F0000CB50020019000907348006801210904AC
:1001000008437149086000BF6F4800680121490435
:10011000084000900198401C01900098002804D1EC
:100120000521090201988842EED167480068012143
:1001300049040840002802D00120009001E000207E
:1001400000900098012839D11120604908605E486C
:1001500040685D4948600846406848600846406815
:100160003F210904884358494860084640681121E6
:1001700009040843544948600846006801210906FB
:1001800008435149086000BF4F48006801214906F3
:1001900008400028F8D04C484068800880004A4950
:1001A000486008464068022108434749486000BF4C
:1001B000454840680C2108400828F9D10CBD10B50D
:1001C00041480068012108433F49086008464068EB
:1001D0003F4908403C494860084600683D4908409E
:1001E0003949086008460068012189048843364976
:1001F0000860084640683F21090488433249486046
:100200000846C06A00090001C8620846006BFF2169
:10021000543188432C4908630846406B400840002D
:10022000486300208860FFF763FF10BDF8B5002524
:10023000002400260027244840680C210840054679
:10024000002D04D0042D06D0082D2AD107E0224825
:100250002249086029E020482049086025E01A4822
:1002600040680F218904084004461748406801216E
:10027000090408400646A00C841C002E04D118482E
:100280006043164908600BE00F48C06A0007000F82
:10029000471C3946104802F0A5FC60430F4908602E
:1002A00003E00D480D49086000BF00BF06484068E4
:1002B000F021084000090B490D5C08480068E8403F
:1002C00006490860F8BD000000100240002002400E
:1002D0000CB8FFF8FFFFF6FE00127A0000000020C5
:1002E00000093D000400002010B50121480700F07E
:1002F00052FD00210120400700F04DFD10BD30B53A
:1003000000220023564C22683E2484401546A54313
:100310002A464D680C682C4323461C4684402243E1
:100320004F4C226030BD00210160416070470029C0
:1003300007D04B4A1268012383401A43484B1A6086
:1003400006E0474A1268012383409A43444B1A60EF
:10035000704710B5002908D0414A526804090123AA
:10036000A3401A433E4B5A6007E03D4A53680409D4
:100370000122A24093433A4A536010BD08B50022BF
:100380000092374A009202460832009BD21800922F
:10039000009A116008BD08B5014600200090304861
:1003A000009088082C30009A80180090009800680F
:1003B00080B208BD002908D0294A126801231B0316
:1003C00083401A43264B1A6007E0254A126801232E
:1003D0001B0383409A43224B1A60704710B5002AD2
:1003E00007D01F4B1B680C46844023431C4C2360E2
:1003F00006E01B4B1B680C468440A343184C23604B
:1004000010BD10B502460020154B5B6B0C469440A6
:100410002340002B01D0012000E0002010BD0A463F
:1004200082400F4B5A63704730B5024600200023CC
:100430000B4C24680D4695402C402346084C646BB9
:100440000D4695402C40002C03D0002B01D00120FC
:1004500000E0002030BD0A468240014B5A637047DD
:10046000007400403E483F490860002048608860B2
:10047000C8603D484861704700213A498279002AA6
:1004800035D00A46126803689A430B461A600A463A
:10049000526803689A430B465A60027951180A68F9
:1004A00003681A430A602F4A926803689A432D4BE7
:1004B0009A601A46D26803689A432A4BDA604279F6
:1004C000102A0CD11A46926803681A43254B9A6089
:1004D0001A46D26803681A43224BDA600DE02149BC
:1004E000427951180A6803681A430A6005E00279E4
:1004F00051180A6803689A430A6070470021016036
:1005000001710C2141710021817170471549096900
:100510000143144A1161704701460020114A526993
:100520000A40002A01D0012000E0002070470D4958
:10053000486170470146002000220A4B1B680B40AF
:100540001A46084B5B690B40002B03D0002A01D0F0
:10055000012000E000207047024948617047000018
:100560000000940F00040140FFFF6B0010B504462B
:100570000920C006844209D10121480400F0EFFBA4
:1005800000210120400400F0EAFB30E06E48844284
:1005900008D10121000200F0E2FB0021200200F05E
:1005A000DEFB24E06948844208D10121000200F00A
:1005B000D6FB0021200200F0D2FB18E06448844200
:1005C00009D10121080500F0CAFB00210120000526
:1005D00000F0C5FB0BE05F48844208D1012188058B
:1005E00000F0BDFB00210120800500F0B8FB10BD2C
:1005F000F0B50A4600210023002400BF3DE001259C
:100600008D402B4615681D402C469C4234D11579EF
:10061000012D02D01579022D16D185684F000326D1
:10062000BE40B543856055794E00B5408668354378
:100630008560858801268E40B543858085889679BA
:100640008E40B6B23543858005684F000326BE4014
:10065000B543056015794E00B54006683543056021
:10066000C5684F000326BE40B543C560D5794E002E
:10067000B540C6683543C560491C1029BFD3F0BDDD
:100680003549016000210171022141710021817110
:10069000C171704708B5012212040092009A0A4302
:1006A0000092009AC261C161009AC261C26900925F
:1006B000C269009208BD02460020138A0B40002B3D
:1006C00001D0012000E0002070470146088A7047F1
:1006D00002460020938A0B40002B01D0012000E04D
:1006E000002070470146888A704781617047018504
:1006F0007047002A01D0816100E001857047818246
:100700007047F0B5002300244D07EE0E1546B540A6
:100710002B46CD10AE0005462035AD594E07F70EDD
:100720000F26BE40B543CE10B60007462037BD5158
:10073000CD10AE003D46AD591D432C46CD10AD0049
:100740003E467451F0BD0000000400480008004817
:10075000000C004800140048FFFF000000218278D0
:10076000002A27D0274A03231B02D21803789B10A4
:100770009B00D15802789207D30EFF229A400B4675
:100780009343194642789207120E03789B07DB0EBB
:100790009A4011431B4A03231B02D21803789B1073
:1007A0009B00D1500278D306DB0E01229A40154BF4
:1007B0001A6007E00278D306DB0E01229A40114B43
:1007C00080331A607047002905D00F4A126902432E
:1007D0000D4B1A6104E00C4A126982430A4B1A61FC
:1007E0007047042806D10949096904221143074AC0
:1007F000116105E00549096904229143034A116129
:100800007047000000E100E000ED00E000E000E0E3
:10081000FD48006801210843FB490860084640681C
:10082000FA490840F849486008460068F849084015
:10083000F549086008460068012189048843F249A7
:100840000860084640683F2109048843EE49486033
:100850000846C06A00090001C8620846006BFF2113
:1008600054318843E84908630846406B400840001B
:1008700048630020886070470021E34A9170114668
:100880008870704710B502460021002300205111E6
:10089000002902D1DC4C23680BE0012902D1DA4C9B
:1008A000236A06E0022902D1D74C636A01E0D64CE4
:1008B000636BD106C90E01248C401C40002C01D072
:1008C000012000E0002010BD38B500200090002479
:1008D000002500BF1120FFF7D5FF05460098401CFA
:1008E0000090052109020098884201D0002DF1D026
:1008F0001120FFF7C7FF002801D0012400E00024E9
:10090000204638BD01460020BF4A1068F823024641
:100910009A431046CA001043BB4A10607047002833
:1009200006D0B949096801221143B74A116005E0B0
:10093000B549096849084900B34A11607047014642
:100940000020B14A506BF82302469A431046CA0071
:100950001043AD4A50637047002806D0AA49496B3E
:1009600001221143A84A516305E0A749496B490890
:100970004900A54A51637047002806D0A249496B37
:1009800004229143A04A516305E09F49496B042228
:1009900011439D4A516370479B49096A49084900C0
:1009A000994A11621146096A04229143964A1162DA
:1009B0001146096A0143116270479349096A182276
:1009C0009143914A11621146096A014311627047CD
:1009D000002806D08C49496A012211438A4A516293
:1009E00005E08949496A49084900874A51627047C8
:1009F000854A52683D231B049A43834B5A601A462A
:100A0000526803460B431A437F4B5A6070470028D5
:100A100007D07D4909680122120611437A4A116004
:100A200006E079490968012212069143764A11606D
:100A3000704701460020744AD06A0009000102464E
:100A40000A431046704AD0627047002807D06E49AA
:100A500009680122D20411436B4A116006E06A4919
:100A600009680122D2049143674A116070476649C0
:100A7000C871704701460020634A506880088000B2
:100A800002460A431046604A506070475E4840681C
:100A90000C2108407047014600205B4A5068F02353
:100AA00002469A43104602460A431046564A506090
:100AB000704701460020544A506807231B02024633
:100AC0009A43104602460A4310464F4A5060704708
:100AD0004D4949680122920391434B4A51601146A6
:100AE000496882B21143484A51601146096B921518
:100AF0009143454A11631146096B020C1143424A66
:100B0000116370474049096B402291433E4A11638B
:100B10001146096B0143116370473B49096B102271
:100B20009143394A11631146096B014311637047C0
:100B30003549096B89088900334A11631146096BED
:100B4000014311637047FEB50446002500260020CE
:100B50000190009000272C4840680C210840054671
:100B6000002D04D0042D05D0082D28D105E02948FA
:100B7000206027E02748206024E0234840680F21B8
:100B800089040840064620484068012109040840BD
:100B90000190B00C861C0198002803D11E487043B8
:100BA00020600BE01848C06A0007000F401C00904E
:100BB0001848009902F016F87043206002E01548CA
:100BC000206000BF00BF10484068F0210840054683
:100BD0002D091248475D2068F84060600A48406867
:100BE00007210902084005462D0A0C48475D606848
:100BF000F840A0600448006BFF21013108408842A2
:100C000010D00748E0601BE0001002400CB8FFF86D
:100C1000FFFFF6FE00127A0000093D0014000020DC
:100C2000809FD500754840680121890308408842AB
:100C300003D0A0684008E06002E0A0688008E0609F
:100C40006E48006B40210840402802D06C4820616B
:100C500002E00120C00320616848006B10210840B9
:100C6000102802D06748606101E020686061634835
:100C7000006B8007800F002802D1A068A06119E0F6
:100C80005E48006B8007800F012802D12068A061B8
:100C900010E05A48006B8007800F022802D18003C1
:100CA000A06107E05548006B8007800F032801D141
:100CB0005448A061FEBD5149096A01434F4A11627F
:100CC0007047002807D04D49096A0122D203114319
:100CD0004A4A116206E04949096A0122D203914356
:100CE000464A11627047002807D04449096A012228
:100CF00012041143414A116206E04049096A012287
:100D0000120491433D4A11627047002905D03B4AC5
:100D100052690243394B5A6104E0384A52698243AE
:100D2000364B5A617047002905D0344A9269024314
:100D3000324B9A6104E0314A926982432F4B9A61A7
:100D40007047002905D02D4AD26902432B4BDA6146
:100D500004E02A4AD2698243284BDA6170470029AD
:100D600005D0264A926A0243244B9A6204E0234A41
:100D7000926A8243214B9A627047002905D01F4A2C
:100D8000D26802431D4BDA6004E01C4AD2688243F9
:100D90001A4BDA607047002905D0184A12690243DD
:100DA000164B1A6104E0154A12698243134B1A610B
:100DB0007047002905D0114A527A02430F4B5A72EC
:100DC00004E00E4A527A82430C4B5A7270470B4829
:100DD000406A0121090608430849486270470146F4
:100DE0000020064A92680A40002A01D0012000E053
:100DF00000207047014988727047000000100240CF
:100E00001280000000127A0010B50446FE488442A9
:100E100008D10121C014FFF7B0FF0021E014FFF753
:100E2000ACFF56E001208007844208D1012108462A
:100E3000FFF7B1FF00210120FFF7ADFF49E0F348C4
:100E4000844208D101210220FFF7A5FF00210220E2
:100E5000FFF7A1FF3DE0EE48844208D101211020B8
:100E6000FFF799FF00211020FFF795FF31E0E948D7
:100E7000844208D101218015FFF78DFF0021A015C4
:100E8000FFF789FF25E0E448844209D101210804E5
:100E9000FFF773FF002101200004FFF76EFF18E049
:100EA000DE48844209D101214804FFF766FF002192
:100EB00001204004FFF761FF0BE0D948844208D1CC
:100EC00001218804FFF759FF002101208004FFF76A
:100ED00054FF10BD00220288CB4B984206D001235C
:100EE0009B07984202D0C94B984203D1CD4B1A4080
:100EF0004B881A43C64B984203D0CB4B1A400B8900
:100F00001A4302804B68C3620B880385BE4B98422C
:100F100008D0C14B984205D0C04B984202D0C04B7C
:100F2000984201D18B7A0386012383827047002186
:100F3000C943416000210180018141808172704775
:100F40000185828270470A4600210188B54B19400D
:100F50000B46134319460180704741627047C162D6
:100F600070470146486A70470146088D704700295E
:100F700004D0028802231A43028004E00288A94BAD
:100F80006E331A4002807047002904D0028804237F
:100F90001A43028004E00288A24B6C331A4002809C
:100FA0007047002904D0028880231A43028004E09D
:100FB00002889C4B103B1A40028070470288994B74
:100FC00068331A40028002880A4302807047028810
:100FD000954B1A40028002880A430280704700291C
:100FE00004D0028801231A43028004E002888D4B5A
:100FF0006F331A40028070470A884B881A438B88E7
:101000001A43CB881A430B891A434B891A438B899D
:101010001A4344231A527047002101804180818085
:10102000C1800181418181817047002907D044221C
:10103000125A0123DB031A4344231A5205E04422C7
:10104000125A53045B0C44221352704770B50024AB
:1010500000220023058C734E6F3635400584028CC8
:101060008388048B6F4D2C40B51E2C400D882C437B
:10107000751E2A408D892A434D882A43624DA84215
:1010800008D0654DA84205D0644DA84202D0644DF9
:10109000A84212D1634D68352A40CD892A43614D5B
:1010A0006C352A408D882A435E4D903D2B405F4D24
:1010B0002B400D8A2B434D8A2B43838004838D68FC
:1010C0004563028470BD70B5002400220023058CA6
:1010D000544E603635400584028C8388048B544D11
:1010E0002C40514D2C400D782D062D0C2C434D4D90
:1010F00050352A408D892D052D0C2A434D882D050C
:101100002D0C2A43404DA84219D1464D103D2A408E
:10111000CD892D052D0C2A43424D30352A408D882E
:101120002D052D0C2A43434D2B40434D2B400D8A5A
:10113000AD042D0C2B434D8AAD042D0C2B43838025
:1011400004838D688563028470BD70B5002400221D
:101150000023058C334E903E35400584028C8388F5
:10116000848B304D2C402F4D6D352C400D882C43F9
:101170002E4D2A400D7B2D062D0C2A438D782D06F1
:101180002D0C2A43204DA84217D12B4D2A408D7B90
:101190002D062D0C2A43274D2A400D792D062D0CA6
:1011A0002A43264D2B40264D2B400D8A2D052D0C14
:1011B0002B434D8A2D052D0C2B43838084838D6812
:1011C000C563028470BD70B5002200230024058C25
:1011D0001A4E35400584038C8488828B144D2A4036
:1011E000114D2A400D782D062D0C2A43144D2B400D
:1011F0000D7B2D072D0C2B438D782D072D0C2B43AC
:10120000014DA84224D11DE0002C01400004004003
:101210000010004000200040004001400044014018
:10122000004801408FFF0000FFFC0000FFFD0000B0
:10123000FF8F0000FFFB0000FFF70000FFEF000042
:10124000FFDF0000FC4D2C400D8AAD052D0C2C431A
:10125000848082838D680564038470BD00210180D1
:101260004180818081608181C1810182418270479A
:1012700070B50346002000241846183001258D4023
:10128000ACB21D8CA5431D84002901D0082909D1C9
:101290004D10281805687026B5430560056815438C
:1012A00005600DE00D1F2D046D0C2818056807263C
:1012B0003603B543056005681606360C35430560F0
:1012C00070BD4163704781637047C16370470164BB
:1012D00070470A460021018BD84B19400B46134337
:1012E0001946018370470A460021018BD44B1940EF
:1012F00013061B0C1943018370470A460021818B9A
:10130000CE4B19400B4613431946818370470A465A
:101310000021818BCA4B194013061B0C1943818392
:101320007047002904D0828801231A43828004E098
:101330008288C24B6F331A40828070470A46002170
:10134000018BBE4B683319400B461343194601838A
:1013500070470A460021018BBA4B194013061B0C3B
:101360001943018370470A460021818BB34B6833D0
:1013700019400B4613431946818370470A460021E2
:10138000818BB04B194013061B0C194381837047A6
:101390000A460021018BA94B6C3319400B461343BD
:1013A0001946018370470A460021018BA64B19405C
:1013B00013061B0C1943018370470A460021818BD9
:1013C0009E4B6C3319400B4613431946818370477B
:1013D0000A460021818B9C4B194013061B0C1943B4
:1013E000818370470A460021018B944B103B1940C2
:1013F0000B4613431946018370470A460021018BAF
:101400004904490C13061B0C1943018370470A4613
:101410000021818B894B103B19400B461343194621
:10142000818370470A460021818B4904490C1306C9
:101430001B0C1943818370470A460021018C7F4BA6
:101440006E3319400B4613431946018470470A4610
:101450000021018C794B683319400B461343194620
:10146000018470470A460021018C744B50331940A7
:1014700013051B0C1943018470470A460021018C97
:101480006E4B103B194013051B0C19430184704728
:101490000A460021018C6D4B194013061B0C1943A1
:1014A000018470470A460021018C664B19401306DF
:1014B0001B0C1943018470470A460021018C644BC0
:1014C000194013071B0C19430184704702895B4BB9
:1014D00068331A40028102890A430281704730B59D
:1014E000002301248C40A3B2048C9C430484048C0C
:1014F00015468D40ADB22C43048430BD30B5002379
:1015000004248C40A3B2048C9C430484048C1546B0
:101510008D40ADB22C43048430BD002904D08288B4
:1015200004231A43828004E08288444B6C331A40BF
:1015300082807047828B474B1A408283828B0B06D6
:101540001B0C1A4382837047F8B50C460021002516
:1015500000260096068C404F3E400684818B058C09
:101560002607360C00963D4E31401606360C3143A8
:101570001E07360C31433A4E354001273F03009E8B
:101580003E43354381830584F8BD828B2B4B643306
:101590001A408283828B0A4382837047F8B50C46D7
:1015A0000021002500260096068C244F903F3E40E7
:1015B0000684818B058C2606360C00961F4E833ED2
:1015C00031401E05360C16433143264E3540FF2769
:1015D0000137009E3E43354381830584F8BD028B6D
:1015E0001C4B1A400283028B0B061B0C1A4302830E
:1015F0007047F8B50C460021002500260096068CA1
:101600000E4F60373E400684018B058C2605360C54
:101610000096124E31401E07360C31431606360C2A
:101620003143064E303E35401027009E3E43354341
:1016300001830584F8BD0000FFBF00008FFF00009C
:10164000FF8F0000FFF70000FFFB0000FFFD000020
:10165000FFDF0000FFF30000FFEF0000FF0C0000C1
:10166000FF5F0000FFF50000028BD84B1A40028399
:10167000028B0A4302837047F0B50C460021002517
:10168000068CD24F0B373E400684018B058CCF4E23
:10169000E73E31401E05360C16433143CB4EB61C97
:1016A000354001262643354301830584F0BD70B5DE
:1016B00005460C46208800280AD12389A288618823
:1016C0002846FFF7D9FFE1882846FFF7CDFF25E040
:1016D000208804280AD12389A28861882846FFF738
:1016E00088FFE1882846FFF77AFF17E0208808285E
:1016F0000AD12389A28861882846FFF74FFFE18835
:101700002846FFF742FF09E02389A288618828461E
:10171000FFF71AFFE1882846FFF70CFF70BD002194
:1017200001804180012181800021C18001817047B9
:10173000F8B505460C46002601276088002801D12F
:10174000022600E00026A088012801D1022700E03F
:1017500001272088002814D12389A288618828467F
:10176000FFF78AFFE1882846FFF77EFF23893A4684
:1017700031462846FFF73DFFE1882846FFF72FFF57
:1017800013E02389A28861882846FFF732FFE188A9
:101790002846FFF724FF23893A4631462846FFF7BB
:1017A0006BFFE1882846FFF75FFFF8BD0146486BF5
:1017B00070470146886B70470146C86B7047014609
:1017C000086C7047002A03D083890B43838102E0B1
:1017D00083898B4383817047818270470246002052
:1017E000138A0B40002B01D0012000E0002070473D
:1017F000CA430282704730B502460020002300240D
:10180000158A0D402B4695890D402C46002B03D0A0
:10181000002C01D0012000E0002030BDCA4302822C
:10182000704710B50B4613434824235210BD002ABD
:1018300003D083890B43838102E083898B438381B7
:101840007047002904D0828808231A43828004E06C
:1018500082885E4B1B1D1A408280704701895B4A5B
:10186000521D1140018170470A4600210189574BE2
:10187000643B19400B46134319460181704730B54C
:1018800004460D4629462046FFF7EEFF2089072132
:101890000843208130BDF8B504460D4616461F4664
:1018A000602D06D13B46012231462046FFF7A1FEBE
:1018B00005E03B46012231462046FFF7DDFE294682
:1018C0002046FFF7D1FF2089072108432081F8BD7A
:1018D00030B50C4600210189C9B21D062D0C1543F7
:1018E00025432943018130BDFFB505460E46174605
:1018F00000243A4631462846039BFFF7E9FF2C892E
:101900003248401D044007200443304864380440F6
:10191000702004432C81FFBDF0B504460D461646E9
:101920001F463B46324629462046FFF7D1FF208915
:101930000121890308432081F0BD8288234B643B49
:101940001A40828082880A438280704702891F4B36
:101950005B1D1A40028102890A4302817047028995
:101960001A4B743B1A40028102890A430281704774
:10197000F0B50C460021002500260189058B068C58
:10198000124F7F1D39400F4627433946104F3D40C7
:10199000FF2702373D430D4F9E3F3E401F053F0C42
:1019A00017433E43018105830684F0BD002904D01E
:1019B000828880231A43828004E08288034B743B30
:1019C0001A4082807047502211527047F3FF000086
:1019D000FCFC000010B50446F648844209D1012100
:1019E0008803FFF7CAF9002101208003FFF7C5F93A
:1019F0000BE0F148844208D101214804FFF7CBF9FC
:101A0000002101204004FFF7C6F910BDF0B589B0F0
:101A100004460D4600270020089000262068400854
:101A2000400020606668032109033046884306466B
:101A3000A868064366602668E0480640E96868686A
:101A400008432969084306432660A6680321090262
:101A500030468843064668690643A66001A8FFF73A
:101A600072F8D448844202D10798089001E00398A4
:101A7000089020680121C903084000280CD029687B
:101A8000089A500001F0AEF807462968089A5000FD
:101A900001F0A8F80E4609E02968089801F0A2F8BC
:101AA00007462968089801F09DF80E462868400806
:101AB000B04200D87F1C20680121C90308400028DB
:101AC00006D03807460F3846BD4908403043074620
:101AD000A78109B0F0BD4B21C9010160002141601F
:101AE0008160C1600C21016100214161704710B526
:101AF000002242680F2424021346A3431A464C686E
:101B00000B6823438C682343CC6823431A43426009
:101B100010BD0021016041608160C16070470029F3
:101B200004D0026801231A43026003E002685208ED
:101B3000520002607047002A03D003680B43036021
:101B400002E003688B4303607047002905D00268F8
:101B50000123DB031A43026004E002680123DB0374
:101B60009A4302607047002905D082680123DB0296
:101B70001A43826004E082680123DB029A43826098
:101B80007047002905D042680123DB041A434260F4
:101B900004E042680123DB049A4342607047002955
:101BA00005D0426801239B041A43426004E0426866
:101BB00001239B049A4342607047002A03D0436884
:101BC0000B43436002E043688B4343607047002946
:101BD00005D042680123DB031A43426004E04268F7
:101BE0000123DB039A4342607047002905D0426815
:101BF0000123DB051A43426004E042680123DB0550
:101C00009A43426070474269120E1206426142696D
:101C10000A4342617047028AFF231B021A40028274
:101C2000028A0A4302827047002904D00268022314
:101C30001A43026003E0026802239A43026070477D
:101C4000826803231B059A43826082680A4382608C
:101C50007047002905D0426801231B051A434260E2
:101C600004E0426801231B059A43426070474268C2
:101C700003235B059A43426042680A43426070470F
:101C8000CA05D20D028570470146888CC005C00D7B
:101C9000704742681202120A426042680B061A43F9
:101CA00042607047002905D0026801235B031A4394
:101CB000026004E0026801235B039A4302607047FC
:101CC00002680123DB029A43026002680A43026051
:101CD0007047426810239A43426042680A43426058
:101CE0007047426820239A43426042680A43426038
:101CF0007047002905D0426801239B031A434260C4
:101D000004E0426801239B039A4342607047002924
:101D100004D0826808231A43826003E082680823A3
:101D20009A4382607047028AD2B20282028A0B0210
:101D30001A4302827047002904D0826820231A4384
:101D4000826003E0826820239A4382607047002902
:101D500004D0826810231A43826003E08268102353
:101D60009A4382607047826807235B049A438260CB
:101D700082684B041A438260704742691202120A59
:101D8000426142690B061A4342617047826804232C
:101D90009A43826082680A4382607047002904D0B7
:101DA000826802231A43826003E0826802239A4316
:101DB000826070470038014000440040F3E9FFFFB3
:101DC000F0FF0000002905D0826801239B031A431D
:101DD000826004E0826801239B039A43826070471B
:101DE00082680123DB039A43826082680A4382602F
:101DF000704702681F235B059A43026002684B0527
:101E00001A430260704702681F231B049A43026052
:101E100002680B041A4302607047002A03D08368EB
:101E20000B43836002E083688B4383607047826862
:101E300001235B039A43826082680A438260704791
:101E4000F8B5034600240026009600250020184619
:101E50000E04340ECEB200960127009EB7403D46D8
:101E6000022C01D1001D02E0032C00D10830002A11
:101E700003D006682E43066002E00668AE430660A3
:101E8000F8BD002A03D0038B0B43038302E0038BCE
:101E90008B4303837047826801231B039A4382604C
:101EA00082680A438260704702460020D3690B4073
:101EB000002B01D0012000E0002070470162704734
:101EC00070B502460B4600240021002500201E04A8
:101ED000350ED9B201268E403146012D02D1166849
:101EE000314006E0022D02D15668314001E096688B
:101EF00031401C0C0126A6403446D66934400029E6
:101F000003D0002C01D0012000E0002070BD10B5EE
:101F1000002300220B0C01249C402246026210BDCB
:101F200000F0E5F80121002000F0A9FA00210120CD
:101F300000F0A5FA012000F0F5FA0120800700F07A
:101F40005FFA1AE000F03FFD0C48008800F047FE01
:101F500000F045FC0A48007801280ED1002008490D
:101F60000870022100F08BFA0221012000F087FAAC
:101F700002480088401C01490880E3E72600002051
:101F800024000020704700BFFEE77047704710B57F
:101F90000120FEF7CFFA002802D00120FEF7DCFA7C
:101FA00010BD704710B501218807FFF724FC0028F9
:101FB00049D040490888C117890F0918891089003C
:101FC000411A03D101203C49087028E039490888AA
:101FD000C117890F091889108900411A012903D1F5
:101FE0000220354908701AE032490888C117890F64
:101FF000091889108900411A022903D103202E49AA
:1020000008700CE02B490888C117890F091889103E
:102010008900411A032902D1042027490870254864
:1020200001880088401C234A10807D20C000814226
:1020300005D10120214908700020114608800121A6
:102040008807FFF7EBFB10BD10B51D4800F041F904
:1020500010BD10B5002401211A48FFF7CCFB002861
:1020600022D00121C9021848FEF725FB0446002CA6
:1020700010D11648007816490978490008431349D9
:10208000087013480088401C124908800121084646
:1020900000F0F5F90E480088401C80B20C49088019
:1020A000082801DB0020088001210648FFF7B6FB65
:1020B00010BD00002E00002037000020240000206A
:1020C0003C000020000400400004004836000020CE
:1020D000340000202600002010B511A000F090FF71
:1020E00001236422114615A000F08AFF10BD10B52F
:1020F000302000F017F900F055FAE12149020020E4
:1021000000F056F800F0A6F900F0F8F900F0FEFC37
:1021100000F05AF900F0C8FBFFF7DEFF10BD000029
:102120007468697320697320696E66726172656490
:102130002070726F647563740A0D00007468652006
:10214000646576656C6F70206E756D62657220696E
:1021500073203A2564202D202564202D25640A0D46
:102160000000000010B50446204600F07AFA10BDC9
:102170006548664908606648486066488860FF2090
:1021800001308881C881002008824882C882088383
:102190004883888260484862704708B51B216846BA
:1021A00001700021417001218170FEF7D7FA08BD4E
:1021B00030B589B004460D46012103204004FEF7E6
:1021C000A4FD002C4AD100BF01218803FEF7ABFD1E
:1021D00001220921C806FEF794FA01220A210920EA
:1021E000C006FEF78EFA0120000301900321684625
:1021F000417201210172002181720121C17201A984
:102200004648FEF7F5F9012109034448FEF76FFA45
:1022100003204002019003216846417202210172AD
:10222000002181720121C17201A90920C006FEF7B7
:10223000DFF90395002004900590069008900C208B
:10224000079003A93048FFF7E1FB01212E48FFF773
:1022500066FC012232492C48FFF7F2FDFFF79DFF93
:10226000FFF786FF09B030BD70B504460D4629461C
:102270002068FFF705FD00BF40212068FFF714FE2E
:102280000128F9D170BDF8B507460D461646002461
:1022900000BF05E0295D3846FFF7E6FF601CC4B2C9
:1022A000B442F7DBF8BDF8B504460D4616460027E4
:1022B000012109031948FEF718FA3246294620463B
:1022C000FFF7E1FF012109031448FEF710FA384631
:1022D000F8BD70B50446002511492068FFF7F0FDF0
:1022E00000280FD00E492068FFF711FE2068FFF785
:1022F000CBFCC5B2E08A411CE182A1680D5428469E
:10230000616A884770BD0000003801403C00002031
:1023100064000020640100206521000800040048DA
:10232000050105002549096904229143234A1161E9
:10233000C217520F12185203120C214B1A80194661
:1023400009887D22D20051431E4A11807047014600
:102350001C4A12884A43194B5A6100229A61012291
:102360001A6100BF154A1069C207D20F002A04D0B3
:10237000012212040240002AF4D000220F4B1A61FD
:102380009A61704701460E4A12884A430B4B5A61C4
:1023900000229A6101221A6100BF084A1069C2072F
:1023A000D20F002A04D0012212040240002AF4D0E5
:1023B0000022024B1A619A617047000000E000E0C1
:1023C00030000020320000201FB501214807FEF731
:1023D000B8FC1020029003206946087302A9092066
:1023E000C006FEF705F93C200090022001906946E6
:1023F0000020FDF784FF01210020FDF798FF1FBD9D
:10240000F1B584B000200290049800F0F5FC044679
:102410000D4A0E4B00F064FC00220D4B0191009020
:1024200000F0F6FB064600F0FBFC0290029800F07C
:10243000CFFC84B221460020FDF7A0FF012100203F
:10244000FDF787FF05B0F0BD6666666666660A4002
:102450000000B0401CB50121C804FEF756FC09205D
:102460008002009003216846417101210171002121
:102470008171C17169463348FEF7BAF81CBD70B569
:1024800005460C460026002D02D0012D32D118E061
:10249000002C05D1012189022A48FEF726F90EE019
:1024A000012C04D1A1022748FEF721F907E0022CF4
:1024B00005D12448808A6102484022498882012649
:1024C00019E0002C05D1012149031E48FEF70DF942
:1024D0000EE0012C04D161031A48FEF708F907E069
:1024E000022C05D11748808A21034840154988826B
:1024F000012600E000BF00BF304670BD1CB50121C1
:102500008805FEF702FC30200090032168464171E7
:102510000121017100218171C17169460A48FEF7EC
:1025200067F81CBD10B50446012C04D110210648E3
:10253000FEF7DBF805E0002C03D110210248FEF77E
:10254000D6F810BD00080048001400480EB501215F
:102550000846FEF7F6FB16496846018009200190FF
:102560000021684601814180694601208007FEF70D
:10257000B1FC012211469007FFF724F901218807D9
:10258000FFF736F901218807FEF729FD0EBD08B5D2
:102590000F21684601700221417001218170FEF710
:1025A000DDF808BD10B5FFF7D1FFFFF7F0FF10BD54
:1025B000BF12000070B502460B46FF25FF2408E05D
:1025C0001178521C69408848405C60400546874845
:1025D000445C18465E1EB3B20028F1D128022043A5
:1025E00070BD70B5C0B005460C4622462946684607
:1025F00000F05CFA21462846FFF7DCFF064632125F
:102600002046611CCCB269460A542046611CCCB2FB
:1026100069460E5422467648FFF745FE40B070BD2D
:1026200038B50446734801786846017071484178AE
:10263000802001436846417084700321FFF7D1FF79
:1026400038BD1CB5002405E06A48005D69460855A0
:10265000601CC4B2062CF7DB06216846FFF7C1FFF9
:102660001CBD6449E031CA7FC97F491CCBB26149B6
:10267000E031CB77E0398854E031C97FFF2903DBB3
:1026800000225C49E031CA77704700BF00215948F9
:10269000E030C27FC07F401EC3B25648E030C377EF
:1026A000E0388154E030C07F0028EFD17047F0B5AA
:1026B000054600274F480078A84200D000BF4D488B
:1026C000E030C07F08280EDB06214A48FFF772FF82
:1026D00004464848807900024649C979401886B2C4
:1026E000B44200D108273846F0BD00B501460020AD
:1026F0000B0000F0ACFC0A06080A0C0E10121416AF
:10270000181A012013E0022011E003200FE004203A
:102710000DE005200BE0062009E0072007E0082077
:1027200005E0092003E00A2001E0334800BF00BFB4
:1027300000BD70B500240025002600212F488170BF
:102740000120FFF7B4FF082803D003212B48817034
:1027500036E001212948C17026484178FF30043015
:102760004170244800790002224949794018400606
:10277000010E2248C01C817001468878C10F0918DB
:102780004D10002411E02046FFF7AFFF0646FF2062
:1027900000023040C2B26000C01C1849C91C0A5473
:1027A0006000001D0E54601CC4B2AC42EBDB68003C
:1027B000C01CC1B21148C01CFFF713FFFFF765FF33
:1027C00070BD10B50B484078032802D1FFF7B1FF68
:1027D00003E001210948817000BF00BF10BD10B5A2
:1027E000FFF7EFFF10BD0000EA310008EA320008F1
:1027F0003C00002064020020FFFF00006403002072
:102800001CB501218805FEF780FA0120C002009066
:102810000021684601710121C17169466D48FDF7CB
:10282000E7FE83200090012168460171C17169466D
:102830000920C006FDF7DCFE80210920C006FDF757
:1028400056FF20200090012168460171C171694640
:102850006148FDF7CDFE1CBD1FB501210220FEF72A
:1028600070FA5E496846818009200290002168461E
:102870008181C18001A95A48FEF72CFB0122114633
:102880005748FEF79FFF01215548FEF7B1FF012190
:102890005348FEF7A4FB10216846017001214170E6
:1028A0008170FDF75BFF1FBD10B5FFF7A9FFFFF7B4
:1028B000D3FF10BD70B505460C46002D70D1230026
:1028C00000F0C5FB080514233241505F6F7E0121E3
:1028D0000920C006FDF70BFF02210920C006FDF705
:1028E00006FF20213C48FDF702FF6AE00121092094
:1028F000C006FDF7FAFE02210920C006FDF7F7FE2B
:1029000020213548FDF7F3FE5BE001210920C006D8
:10291000FDF7EDFE02210920C006FDF7E6FE2021AD
:102920002D48FDF7E4FE4CE001210920C006FDF72B
:10293000DCFE02210920C006FDF7D7FE2021264833
:10294000FDF7D5FE3DE001210920C006FDF7CFFED1
:1029500002210920C006FDF7CAFE20211E48FDF70E
:10296000C4FE2EE001210920C006FDF7BEFE0221B3
:102970000920C006FDF7BBFE20211748FDF7B5FE74
:102980001FE001210920C006FDF7B1FE0221092048
:10299000C006FDF7AAFE20210F48FDF7A6FE10E0B5
:1029A00010E001210920C006FDF79FFE0221092049
:1029B000C006FDF79AFE20210748FDF796FE00E0CD
:1029C00000BF00BF70BD10B5064801780020FFF7BA
:1029D00071FF10BD0004004800140048BF12000041
:1029E000000400403400002001460020002905D0EA
:1029F00000E0401C0B78491C002BFAD170470246BE
:102A000005E01078002800D17047521C491C0020B6
:102A100010560023CB569842F3D0002010560023C6
:102A2000CB56C01AF0E70246104603E00B7813704D
:102A3000491C521C0B78002BF8D11370704730B52D
:102A400003460C46002100BF0DE058566556A842CB
:102A500008D058566556A84201DD012030BD00203F
:102A6000C043FBE7491C9142EFDB0020F6E7412819
:102A700001DB5A2803DD612804DB7A2802DCDF2130
:102A8000014048B2704710B502461046521E00BFC2
:102A9000531C1A461B78002BFAD100BF0B78137019
:102AA000491C1478521C002CF8D110BD10B50346F7
:102AB0000C46002100BF02E0605C5854491C914262
:102AC000FADB104610BD10B503460C46002100BFCE
:102AD00001E05C54491C9142FBDB104610BD30B54F
:102AE00003460C4600210DE058566556A84208D012
:102AF00058566556A84201DD012030BD0020C04374
:102B0000FBE7491C9142EFD30020F6E71CB50121F9
:102B10008804FEF7FAF8FF20313000900321684660
:102B200041710121017100218171C17169462C48F7
:102B3000FDF75EFD1CBD70B5044608251EE0802033
:102B40002040002804D0FF2001302549886104E09E
:102B5000FF200130224920310881102020492031F6
:102B600008810120FFF7F3FB6006040E10201C49CA
:102B700088610120FFF7EBFB681EC5B2002DDEDC8B
:102B800070BD2020164920310881154988617047A1
:102B9000F8B507460C4615461E463846FFF7CBFFEC
:102BA0002046FFF7C8FF2846FFF7C5FF3046FFF76E
:102BB000C2FFFFF7E6FFF8BD10B50446200EFFF791
:102BC000BAFF2102080EFFF7B6FF2104080EFFF737
:102BD000B2FFE0B2FFF7AFFFFFF7D3FF10BD7047C2
:102BE0000004004830B50B46014600202022012495
:102BF00009E00D46D5409D4205D31D469540491B31
:102C00002546954040191546521E002DF1DC30BD79
:102C1000F0B51FB488B00B99099800244840099971
:102C2000C00F490049080991C0070B99009049005D
:102C300049080B9109990898A64608431CD00B999E
:102C40000A98084318D0099801244000420D480012
:102C5000410D099824050003000B204309900B98AF
:102C60000003000B20430B9050181C494018002211
:102C700001901446104605E0002001460DB0F0BD5D
:102C8000032801DA034600E003239C46C11A0AAE7A
:102C90000AE05F0008ADED5B4F00F75B7D43002766
:102CA000AA187C41491C5B1E6145F2DD410004AB62
:102CB0005A522104120C0A43240C401C0828DFDB62
:102CC000019802900099704601910090059B049A2A
:102CD0000799069800F00EF9D0E700000DFCFFFF01
:102CE000F0B50C465C4085B0E40FE40703944C005B
:102CF0000026640859009446490802460296224379
:102D000021D062460A431ED06200570D4A000E03CE
:102D10002303550D012402462C492405781B1B0B67
:102D2000360B401823432643614600901C46501A38
:102D3000B44103D30098401C009002E09218009820
:102D40005B41002803DA0020014605B0F0BD0020F9
:102D5000012109050746864611E064461D46141BFD
:102D6000B54106D36546521BB341744607430C4335
:102D7000A646CD0740084908284392185B410546FE
:102D80000D43EAD11046184313D06046194650400F
:102D90007140084306D06046101AB34106D20122A2
:102DA000002306E000220123DB0702E00122D243D8
:102DB0005310009874460105381C6141029C039D24
:102DC0000019694100F089F8BFE70000FD03000029
:102DD000410040020122400AD205090E80187F29D5
:102DE00001DA00207047962903DC9622511AC84068
:102DF0007047963988407047C20FD207400040089C
:102E00000BD0C10D0723DB01C91840020905400A98
:102E10001143C20840071143704700200146704724
:102E2000CB0FDB07490010B5490802460A4307D01B
:102E30000A0D07240903E401090B121B002A01DC17
:102E4000002010BDC900440F0C43C100E018D2059A
:102E5000801800F001F810BD002904DA401C490078
:102E600001D140084000704770B40024050C05D122
:102E70001024000402D1002921D01124050E01D113
:102E800000020834050F01D10001241D850F01D176
:102E90008000A41C002801DB4000641C002908D02D
:102EA00020252E1B0D46F540A14000D001212943CD
:102EB000084301061B1B000ADB1D02D5002070BC65
:102EC0007047DB05181880180029F8DA401C490003
:102ED000F5D170BC40084000704710B5002B08DAEF
:102EE0000024401C614192185B411A4301D1400803
:102EF000400010BDF0B51FB482B005460C0003D0F1
:102F0000084600F08DF802E000F08AF82030024612
:102F100000902146284600F051F8049B059A04468B
:102F20000F4618431143084314D0184610431BD0D2
:102F3000009840210A1A1846059900F04FF80546F6
:102F40000E46009A0599049800F038F8084305D019
:102F5000012004E02046394607B0F0BD0020C1172B
:102F600005430E432C43374300990E986305401ADE
:102F70007905E40A00220C43FD0A0A3002D500203C
:102F80000146E9E70105101969410C9C0D9D0019E6
:102F90006941FFF7A2FFDFE7064C0125064E05E079
:102FA000E36807CC2B430C3C98471034B442F7D36A
:102FB000FDF78AF8EC3300080C34000810B5202A1D
:102FC00004DB0146203A9140002010BD91402023AF
:102FD0009C1A0346E3401943904010BD10B5202AC7
:102FE00004DB0846203AD040002110BD0B46D340F8
:102FF000D0402024A21A91400843194610BD000079
:103000000FB410B503A9044B044A029800F03CF831
:1030100010BC08BC04B01847D931000838000020A3
:103020002021020C01D010211046020A01D01046C6
:103030000839020901D01046091F820801D0104644
:10304000891E420801D0881E7047081A704730B4A4
:103050007446641E2578641CAB4204D3635D5B0038
:10306000E31830BC18471D46F8E702E008C8121FF5
:1030700008C1002AFAD170477047002001E001C161
:10308000121F002AFBD17047FFB58DB00446002502
:1030900006E025280AD0109A0F999047641C6D1CF1
:1030A00020780028F5D1284611B0F0BD0027012175
:1030B000484A009700E00743641C23780846203BF9
:1030C00098401042F7D120782E2817D104200743CA
:1030D0006078641C2A280CD10E98641C02C80091E8
:1030E0000E900BE000990A22514330394018641CBD
:1030F00000902078014630390929F3D9207800283A
:10310000D1D0642808D0692806D075281ED0109A1E
:103110000F9990476D1C5BE00A200E99019001C940
:103120000E91002802DA40422D2102E0390504D533
:103130002B216A461172012103E0F90704D02021F6
:10314000F7E70BAE0B910DE00021FAE70A200E998C
:10315000019001C90E91F7E70199FFF743FD303166
:10316000761E31700028F7D103A8801B2030019013
:10317000780701D5009801E001200090019988426C
:1031800001DD401A00E000200027009006E002A8C0
:10319000109AC05D0F9990476D1C7F1C0B98874259
:1031A000F5DB04E0109A30200F9990476D1C0099D0
:1031B000481E00900029F5DC05E03078109A761C56
:1031C0000F9990476D1C0199481E01900029F4DC6D
:1031D000641C65E70928010038B504466846047098
:1031E00069460320ABBE204638BD00C1814001C006
:1031F000804101C0804100C1814001C0804100C1C7
:10320000814000C1814001C0804101C0804100C1B6
:10321000814000C1814001C0804100C1814001C0A6
:10322000804101C0804100C1814001C0804100C196
:10323000814000C1814001C0804100C1814001C086
:10324000804101C0804100C1814000C1814001C076
:10325000804101C0804100C1814001C0804100C166
:10326000814000C1814001C0804101C0804100C156
:10327000814000C1814001C0804100C1814001C046
:10328000804101C0804100C1814000C1814001C036
:10329000804101C0804100C1814001C0804100C126
:1032A000814000C1814001C0804100C1814001C016
:1032B000804101C0804100C1814001C0804100C106
:1032C000814000C1814001C0804101C0804100C1F6
:1032D000814000C1814001C0804100C1814001C0E6
:1032E000804101C0804100C1814000C0C101C303D1
:1032F00002C2C60607C705C5C404CC0C0DCD0FCF4E
:10330000CE0E0ACACB0BC90908C8D81819D91BDBBD
:10331000DA1A1EDEDF1FDD1D1CDC14D4D515D7170D
:1033200016D6D21213D311D1D010F03031F133F3BD
:10333000F23236F6F737F53534F43CFCFD3DFF3F0D
:103340003EFEFA3A3BFB39F9F83828E8E929EB2B3D
:103350002AEAEE2E2FEF2DEDEC2CE42425E527E7CD
:10336000E62622E2E323E12120E0A06061A163A33D
:10337000A26266A6A767A56564A46CACAD6DAF6FCD
:103380006EAEAA6A6BAB69A9A86878B8B979BB7B3D
:103390007ABABE7E7FBF7DBDBC7CB47475B577B78D
:1033A000B67672B2B373B17170B0509091519353BD
:1033B000529296565797559594549C5C5D9D5F9F8D
:1033C0009E5E5A9A9B5B99595898884849894B8BBD
:1033D0008A4A4E8E8F4F8D4D4C8C4484854587474D
:1033E0004686824243834181804000000C340008BD
:1033F000000000203C0000006A300008483400084B
:103400003C0000202C0800007A300008006CDC0230
:103410000000000000000000010203040607080984
:10342000000000000102030401020304060708096A
:103430000000D204000000000000000000000000B6
:08344000000000000000000084
:04000005080000C12E
:00000001FF
